S02700006F75747075745F66696C65732F4154584D4547413132384131555F70726F6A2E7372656328
S11300000C9424010C944A010C944A010C944A0166
S11300100C944A010C944A010C944A010C944A0130
S11300200C944A010C944A010C944A010C944A0120
S11300300C944A010C944A010C944A010C944A0110
S11300400C944A010C944A010C944A010C944A0100
S11300500C944A010C944A010C944A010C944A01F0
S11300600C944A010C944A010C944A010C944A01E0
S11300700C944A010C944A010C944A010C944A01D0
S11300800C944A010C944A010C944A010C944A01C0
S11300900C944A010C944A010C944A010C944A01B0
S11300A00C944A010C944A010C944A010C944A01A0
S11300B00C944A010C944A010C944A010C944A0190
S11300C00C944A010C944A010C944A010C944A0180
S11300D00C944A010C944A010C944A010C944A0170
S11300E00C944A010C944A010C944A010C944A0160
S11300F00C944A010C944A010C944A010C944A0150
S11301000C944A010C944A010C944A010C944A013F
S11301100C944A010C944A010C944A010C944A012F
S11301200C944A010C944A010C944A010C944A011F
S11301300C944A010C944A010C944A010C944A010F
S11301400C944A010C944A010C944A010C944A01FF
S11301500C944A010C944A010C944A010C944A01EF
S11301600C944A010C944A010C944A010C944A01DF
S11301700C944A010C944A010C944A010C944A01CF
S11301800C944A010C944A010C944A010C944A01BF
S11301900C944A010C944A010C944A010C944A01AF
S11301A00C944A010C944A010C944A010C944A019F
S11301B00C944A010C944A010C944A010C944A018F
S11301C00C944A010C944A010C944A010C944A017F
S11301D00C944A010C944A010C944A010C944A016F
S11301E00C944A010C944A010C944A010C944A015F
S11301F00C944A010C944A010C944A0180E18093C6
S113020065068093610680E28093650680936106AB
S113021080E4809365068093610680E090E020E3AB
S113022035E740E65AEE07C060E370E47093650674
S113023060936606019682179307B1F384179507B6
S1130240C9F760E570E2F2CF11241FBECFEFCDBF36
S1130250DFE3DEBF00E00CBF18BE19BE1ABE1BBE32
S113026010E2A0E0B0E2ECE9F2E000E00BBF02C073
S113027007900D92A030B107D9F71BBE20E2A0E091
S1130280B0E201C01D92A030B207E1F70E94FE0067
S10F02900C944C010C940000F894FFCF77
S9030000FC
