:100000000C942D010C9453010C9453010C94530146
:100010000C9453010C9453010C9453010C94530110
:100020000C9453010C9453010C9453010C94530100
:100030000C9453010C9453010C9453010C945301F0
:100040000C9453010C9453010C9453010C945301E0
:100050000C9453010C9453010C9453010C945301D0
:100060000C9453010C9453010C9453010C945301C0
:100070000C9453010C9453010C9453010C945301B0
:100080000C9453010C9453010C9453010C945301A0
:100090000C9453010C9453010C9453010C94530190
:1000A0000C9453010C9453010C9453010C94530180
:1000B0000C9453010C9453010C9453010C94530170
:1000C0000C9453010C9453010C9453010C94530160
:1000D0000C9453010C9453010C9453010C94530150
:1000E0000C9453010C9453010C9453010C94530140
:1000F0000C9453010C9453010C9453010C94530130
:100100000C9453010C9453010C9453010C9453011F
:100110000C9453010C9453010C9453010C9453010F
:100120000C9453010C9453010C9453010C945301FF
:100130000C9453010C9453010C9453010C945301EF
:100140000C9453010C9453010C9453010C945301DF
:100150000C9453010C9453010C9453010C945301CF
:100160000C9453010C9453010C9453010C945301BF
:100170000C9453010C9453010C9453010C945301AF
:100180000C9453010C9453010C9453010C9453019F
:100190000C9453010C9453010C9453010C9453018F
:1001A0000C9453010C9453010C9453010C9453017F
:1001B0000C9453010C9453010C9453010C9453016F
:1001C0000C9453010C9453010C9453010C9453015F
:1001D0000C9453010C9453010C9453010C9453014F
:1001E0000C9453010C9453010C9453010C9453013F
:1001F0000C9453010C9453010C94530180E18093AF
:1002000061068093660680E48093610680936506AC
:100210000895CF93DF93CDB7DEB724970FB6F89448
:10022000DEBF0FBECDBF80E090E08B839C838983CF
:100230009A830E94FE0000C089819A81FC01319658
:10024000E983FA8320E63AEE8217930729F400C087
:1002500080E58093670600C0EFCF11241FBECFEF6B
:10026000CDBFDFE3DEBF00E00CBF18BE19BE1ABE73
:100270001BBE10E2A0E0B0E2EEEAF2E000E00BBF4D
:1002800002C007900D92A030B107D9F71BBE20E243
:10029000A0E0B0E201C01D92A030B207E1F70E94D9
:0E02A00009010C9455010C940000F894FFCF56
:00000001FF
