S02700006F75747075745F66696C65732F4154584D4547413132384131555F70726F6A2E7372656328
S11300000C945A010C9480010C9480010C9480018E
S11300100C9480010C9480010C9480010C94800158
S11300200C9480010C9480010C9480010C94800148
S11300300C9480010C9480010C9423010C94800195
S11300400C9480010C9480010C9480010C94800128
S11300500C9480010C9480010C9480010C94800118
S11300600C9480010C9480010C9480010C94800108
S11300700C9480010C9480010C9480010C948001F8
S11300800C9480010C9480010C9480010C948001E8
S11300900C9480010C9480010C9480010C948001D8
S11300A00C9480010C9480010C9480010C948001C8
S11300B00C9480010C9480010C9480010C948001B8
S11300C00C9480010C9480010C9480010C948001A8
S11300D00C9480010C9480010C9480010C94800198
S11300E00C9480010C9480010C9480010C94800188
S11300F00C9480010C9480010C9480010C94800178
S11301000C9480010C9480010C9480010C94800167
S11301100C9480010C9480010C9480010C94800157
S11301200C9480010C9480010C9480010C94800147
S11301300C9480010C9480010C9480010C94800137
S11301400C9480010C9480010C9480010C94800127
S11301500C9480010C9480010C9480010C94800117
S11301600C9480010C9480010C9480010C94800107
S11301700C9480010C9480010C9480010C948001F7
S11301800C9480010C9480010C9480010C948001E7
S11301900C9480010C9480010C9480010C948001D7
S11301A00C9480010C9480010C9480010C948001C7
S11301B00C9480010C9480010C9480010C948001B7
S11301C00C9480010C9480010C9480010C948001A7
S11301D00C9480010C9480010C9480010C94800197
S11301E00C9480010C9480010C9480010C94800187
S11301F00C9480010C9480010C9480014AD081E01D
S1130200809306068093010692E0909306069093ED
S1130210010694E0909306069093010620E030E0F6
S1130220309321082093200820E137E230932708F7
S1130230209326088093060896E090930008809304
S1130240A2007894FFCF0F930FB70F939F938F93D0
S113025090910020939580E0933009F0892F80934A
S11302600020803039F0823041F0813061F480E444
S113027090E305C080E390E402C080E590E29093AF
S11302806506809366068F919F910F910FBF0F9122
S1130290189580E1809365068093610680E28093DF
S11302A065068093610680E4809365068093610609
S11302B00895920211241FBECFEFCDBFDFE3DEBF4E
S11302C000E00CBF18BE19BE1ABE1BBE10E2A0E0AF
S11302D0B0E2E8E0F3E000E00BBF02C007900D924B
S11302E0A030B107D9F71BBE20E2A0E0B0E201C004
S11302F01D92A130B207E1F70E94FE000C94820126
S10B03000C940000F894FFCFF7
S9030000FC
